:100000000C94B0020C94CD020C94CD020C94CD0251
:100010000C94CD020C94CD020C94CD020C94CD0224
:100020000C94CD020C94CD020C94CD020C94C80318
:100030000C9417040C94CD020C94CD020C94EC0992
:100040000C94CD020C94CD020C94CD020C94CD02F4
:100050000C94CD020C94CD020C94CD020C94CD02E4
:100060000C94CD020C94CD020C94CD020C94CD02D4
:100070000C94CD020C0030121C480214080C7F3086
:10008000085520007F0008002000000090B327AA38
:10009000A252A8B372AA915290B35200000000007D
:1000A000000000000000006C44C9FE2929FE11294F
:1000B000FE11297C11293811291010C600000000FA
:1000C0000000000000000000000000000000000F21
:1000D000D0001FB0003F70007ED000FD9001FB30CB
:1000E00000026001FAC001FB8001FB0001FA000080
:1000F000008000BBC001BBE003BBF007C7E007FF07
:10010000D003FFB005FF70067EF00799F007E7F017
:1001100007EFF007EFE007EF0007EC0007800006AD
:10012000380000380000BA0000C60000FE00007C65
:100130000000380000000000000000000000000087
:100140000000000000000001000020021200020078
:1001500000BF012200220000E1013F00210000D188
:10016000010900030000BB010401030904A70112F7
:100170000203090477012E2E035400650063006812
:10018000006B006500790073002000420075007369
:100190000069006E00650073007300200043006179
:1001A00000720064000000120354006500630068E0
:1001B000006B006500790073000000040309040966
:1001C000022200010100A032090400000103010124
:1001D00000092111010001223F00070581030800E9
:1001E0000105010906A10175019508050719E02916
:1001F000E7150025018102950175088103950575B4
:1002000001050819012905910295017503910395CE
:10021000067508150025680507190029688100C0C2
:100220001201000200000020C0167C04000101023F
:1002300000010000F7070000220801C1220002C1EE
:10024000220003C02204004F505251E0E2E376E165
:100250002B2928000000000000000000000000E042
:10026000E2E376E100002C9EB4A0A1A2A434A6A7EC
:10027000A5AE362D3738271E1F2021222324252600
:10028000B333B62EB7B89F8485868788898A8B8CCE
:100290008D8E8F909192939495969798999A9B9C16
:1002A0009D2F3130A3AD350405060708090A0B0C54
:1002B0000D0E0F101112131415161718191A1B1CF6
:1002C0001DAFB1B0B500000000000008082A1C08EE
:1002D000081C2A080808043E040808103E10084EAE
:1002E00051445F545C545C405F575D5C505C5E44BD
:1002F00048445E445E535E44242E2474241F15003B
:10030000171D081C2A080E023F002E3A00000000AC
:1003100000000000000000000000000000000000DD
:1003200000000000000000000000000000000000CD
:1003300000000000000000000000000000000000BD
:100340000000001C22083E28382838003E2E3A388B
:1003500020383C0810083C083C263C0800000000FF
:10036000000000000000604040406000005F0000AE
:100370000007000700147F147F14242A7F2A122309
:100380001308646236495522500005030000001C22
:100390002241000041221C00082A1C2A0808083EAD
:1003A00008080050300000080808080800606000D5
:1003B0000020100804023E5149453E00427F4000A3
:1003C00042615149462141454B311814127F102793
:1003D000454545393C4A49493001710905033649CB
:1003E000494936064949291E00363600000056366E
:1003F000000000081422411414141414412214089B
:10040000000201510906324979413E7E1111117EE7
:100410007F494949363E414141227F4141221C7F6B
:10042000494949417F090901013E414151327F0853
:1004300008087F00417F41002040413F017F0814B0
:1004400022417F404040407F0204027F7F04081029
:100450007F3E4141413E7F090909063E4151215EEF
:100460007F09192946464949493101017F01013F68
:100470004040403F1F2040201F7F2018207F6314F2
:100480000814630304780403615149454300007F65
:100490004141020408102041417F00000402010292
:1004A000044040404040000102040020545454786D
:1004B0007F484444383844444420384444487F38D2
:1004C00054545418087E090102081454543C7F08FF
:1004D00004047800447D40002040443D00007F102B
:1004E000284400417F40007C041804787C08040400
:1004F0007838444444387C14141408081414187CC4
:100500007C080404084854545420043F4440203CD0
:100510004040207C1C2040201C3C4030403C442873
:100520001028440C5050503C4464544C440008364D
:10053000410000007F000000413608000C02040862
:1005400006000000000000000000000000000000A5
:10055000000000000000000000000000000000009B
:1005600011241FBECFEFD2E0DEBFCDBF11E0A0E06F
:10057000B1E0EEE1F2E202C005900D92AE31B107BA
:10058000D9F721E0AEE1B1E001C01D92A93FB20769
:10059000E1F70E94F10C0C940D110C9400008A37C5
:1005A000A1F08032A1F08A35A1F08933A1F08F3219
:1005B000A1F08034A1F08036A1F08E37A1F08D300B
:1005C000A1F08D31A1F08F5F089580E2089581E65A
:1005D000089581E4089581E208958AE308958BE502
:1005E00008958BE7089580E3089589E1089581E0F7
:1005F00008958136A1F08032A1F08134A1F08B37CB
:10060000A1F08B35A1F08A33A1F08132A1F08033C3
:10061000A1F08130A1F08931A1F08150089580E2EC
:1006200008958AE708958AE5089580E6089580E4AC
:1006300008958FE2089589E308958EE708958DE186
:1006400008958DE008950E94E2050C94950680912E
:10065000E80080FFFCCF0895E8EEF0E080818E7F17
:10066000808380818F77808308958091E80082FF66
:10067000FCCF8091E8008B7F8093E8008091E800B8
:100680008F778093E8000895CF93DC01CB01BA0106
:1006900026E431E0F901459154914A175B07D1F402
:1006A000F9013296459154914817590799F4F90187
:1006B000349685919491F9013696E491CFB7789468
:1006C00021E040E250E00E94570581110E9435036D
:1006D000CFBF0BC0295F3F4F41E027373407D1F62A
:1006E0008091EB0080628093EB00CF91089584E0CD
:1006F00089BD89B5826089BD09B400FEFDCF8091B6
:10070000D80080688093D8008091D8008F7D809336
:10071000D8008091E0008E7F8093E000109221014C
:100720008CE28093E2007894809121018823E1F3A8
:100730008091E20081608093E2000895E2EEF0E0B3
:100740008081837F808310922101E0EEF0E0808140
:1007500081608083E8EDF0E080818F778083089569
:1007600080912101089580912001089580912001B8
:10077000882369F08091E00082608093E00080919E
:10078000E00081FDFCCF809120018111FCCF089514
:100790001F920F920FB60F9211242F933F934F93F6
:1007A0005F936F937F938F939F93AF93BF93CF93F9
:1007B000DF93EF93FF93D091E900C091E100109295
:1007C000E100C3FF1AC080E00E94A605109221013B
:1007D000D093E900FF91EF91DF91CF91BF91AF915D
:1007E0009F918F917F916F915F914F913F912F9149
:1007F0000F900FBE0F901F901895C2FF0EC08091F2
:100800002101882351F0E0910001F0910101099547
:10081000E0910201F09103010995C0FF03C081E05E
:1008200080932001C5FFD4CF10922001D1CF1F9219
:100830000F920FB60F921124FF920F931F932F93D5
:100840003F934F935F936F937F938F939F93AF9358
:10085000BF93EF93FF93CF93DF93CDB7DEB7289786
:10086000DEBFCDBFF090E9001092E9008091E80072
:1008700083FF1FC068E0CE0101960E943C05809175
:10088000E800877F8093E80089818F7709F085C031
:100890008A81853061F58B818093E3000E94270374
:1008A0000E942C030E9427038091E30080688093BC
:1008B000E300F092E90028960FB6F894DEBF0FBE71
:1008C000CDBFDF91CF91FF91EF91BF91AF919F91FC
:1008D0008F917F916F915F914F913F912F911F91D8
:1008E0000F91FF900F900FBE0F901F9018958930B9
:1008F000B9F48B81809321010E9427030E942C036D
:1009000011E002E0812F0E94A605882309F44AC065
:100910000093EA001092EA001F5F143099F7C9CFE4
:10092000883059F40E942703809121018093F100BF
:100930000E942C030E943503BCCF811107C00E9486
:1009400027031092F1001092F100F2CF863049F4A3
:100950004F8158856D817E818B819C810E944403EB
:10096000A8CF833071F48B819C810197D9F4809159
:100970001E0190911F01826090931F0180931E01C0
:1009800098CF813079F48B819C81019759F48091C3
:100990001E0190911F018D7FEFCF813049F48A8134
:1009A0008630B1F28091EB0080628093EB0081CFC2
:1009B000823009F042C08A8181110FC00E94270352
:1009C0008D818093E9008091EB0085FB882780F979
:1009D0001092E9008093F100B6CF8D7F813011F73E
:1009E0008B819C81892BF1F60D811E810F77112758
:1009F000C80101970397B0F60E9427030E942C03B9
:100A00000093E9008A81833041F48091EB00806299
:100A10008093EB001092E9004CCF8091EB0088614D
:100A20008093EB0081E090E001C0880F0A95EAF71F
:100A30008093EA001092EA00EDCF813209F0B2CF44
:100A4000E2E3F2E0859194912D812817190609F0CF
:100A5000A9CFE4E3F2E025913491CE010196F901AA
:100A60000995882309F49ECF898187FD63CF0E9471
:100A700027030E942C031DCF615008F40895FC0148
:100A80008091F1008193CF01F7CF615008F4089570
:100A9000FC0181918093F100CF01F7CFFC016150FF
:100AA00008F4089584918093F1003196F8CFBF92B5
:100AB000CF92DF92EF92FF920F931F93CF93DF932A
:100AC0008C01EB016A01B22E209711F481E017C06E
:100AD0008091E80080FD04C08091E80082FFF8CF9B
:100AE0008091E80082FF15C08091E8008B7F8093A1
:100AF000E8008091E8008F778093E80080E0DF9144
:100B0000CF911F910F91FF90EF90DF90CF90BF900A
:100B100008957E01CC16DD0608F476016E2DC8011D
:100B2000BB2089F00E944E058091E8008E7F809363
:100B3000E8008091E8008F778093E8000E0D1F1D7C
:100B4000CE19DF09C1CF0E944505EECFE6E3F2E002
:100B50009491891789F0EAE3F2E09491891749F1B9
:100B6000EEE3F2E09491891739F1E2E4F2E0949136
:100B7000981729F180E0089526E332E0849180936C
:100B8000E90081E08093EB00F9013196E491E09374
:100B9000EC00F9013296E491E093ED008091EE00D3
:100BA00087FFE8CFF9013396E491E093F00081E00C
:100BB00008952AE332E0E2CF2EE332E0DFCF22E4F1
:100BC00032E0DCCF209122013091230140912401B9
:100BD0005091250160912601709127018091280193
:100BE00090912901A1E00E94B71020932201309337
:100BF00023014093240150932501609326017093B3
:100C000027018093280190932901089520912201C2
:100C100030912301409124015091250160912601DA
:100C200070912701809128019091290108958F9258
:100C30009F92AF92BF92CF92DF92EF92FF920F936B
:100C40001F93CF93DF93A0902201B0902301C09017
:100C50002401D0902501E0902601F0902701009119
:100C60002801109129019C0140E050E060E070E013
:100C700080E090E00E94AE104901D42FC52FB62F1E
:100C8000A72FF82FE92FA0902201B0902301C09048
:100C90002401D0902501E0902601F09027010091D9
:100CA00028011091290194014D2F5C2F6B2F7A2F71
:100CB0008F2F9E2F0E94CC1009F028F7DF91CF9143
:100CC0001F910F91FF90EF90DF90CF90BF90AF906A
:100CD0009F908F9008958AB183788AB98BB18C6781
:100CE0008BB90895823099F038F481110BC089B125
:100CF00085FB882780F90895833069F0843081F07E
:100D000080E0089589B186FB882780F9089589B12C
:100D100082958170089589B183FB882780F90895B1
:100D200089B182FB882780F908952F923F924F92D4
:100D30005F926F927F928F929F92AF92BF92CF926B
:100D4000DF92EF92FF920F931F93CF93DF930E9456
:100D50000606922E832E742E652E562E472E382E82
:100D6000292E20912A0130912B0140912C01509184
:100D70002D0160912E0170912F0180913001909191
:100D80003101A2E30E94B710A92CB82CC72CD62C95
:100D9000E52CF42C032D122D0E94CC1011F008F03C
:100DA0004BC090922A0180922B0170922C0160928C
:100DB0002D0150922E0140922F013092300120924D
:100DC0003101D0E0C0E08C2F0E947206A1E0A8277C
:100DD00020913D01E1E0F0E00C2E01C0EE0F0A94FD
:100DE000EAF730E00C2E02C0359527950A94E2F719
:100DF00020FD35C0AA2399F180913C018E2B809370
:100E00003C019092320180923301709234016092E1
:100E100035015092360140923701309238012092CC
:100E20003901C093040180913D01E82BE0933D011D
:100E30002196C530D10539F6DF91CF911F910F91E1
:100E4000FF90EF90DF90CF90BF90AF909F908F90EA
:100E50007F906F905F904F903F902F9008952091DA
:100E60003D0130E00C2E02C0359527950A94E2F73B
:100E700020FF0FC0882369F08FEF809304018091D9
:100E80003B018E2B80933B0180913D01E095E8234F
:100E9000CDCF2091320130913301409134015091F6
:100EA0003501609136017091370180913801909140
:100EB000390128513C4F4F4F5F4F6F4F7F4F8F4F3E
:100EC0009F4FA92CB82CC72CD62CE52CF42C032D25
:100ED000122D0E94CC1080F480910401082E000C89
:100EE000990B8C179D0741F49FEF9093040180911B
:100EF0003A018E2B80933A01AA2331F294CF90913C
:100F00003D0121E030E002C0220F331F8A95E2F755
:100F1000892F90E02823392381E0232B09F480E0F6
:100F2000089590913C0141E050E002C0440F551FEC
:100F30008A95E2F720913C01842F8095822380934B
:100F40003C01292F30E02423352381E0232B09F4B1
:100F500080E0089590913B0141E050E002C0440FD1
:100F6000551F8A95E2F720913B01842F80958223BB
:100F700080933B01292F30E02423352381E0232B6C
:100F800009F480E0089590913A0141E050E002C0F8
:100F9000440F551F8A95E2F720913A01842F8095DE
:100FA000822380933A01292F30E02423352381E0E6
:100FB000232B09F480E00895E8EEF0E080818E7F35
:100FC000808380818F778083089580913E01E1EF57
:100FD000F0E08083108266E08FE391E00C94450599
:100FE00080914801811102C00C94E5070895FC012D
:100FF0008181908197FF1BC09091E80090FFFCCF0A
:10100000823059F0833081F0813009F03FC00E9476
:10101000F0070E94DC0781E008958091070190911C
:1010200008018093F100F5CF80914801FACF8A3012
:10103000D1F08B3039F1893049F58091E80082FF99
:10104000FCCF8091F1008093460181E080934501BF
:101050008091E8008B7F8093E8008091E8008F7793
:101060008093E800D8CF838190E09093080180932B
:1010700007018091070190910801909306018093E8
:101080000501C9CF828180934801C5CF80E00895D2
:101090000E94B0038823C9F18091470181112DC0BE
:1010A0008091070190910801892B79F180910501C8
:1010B00090910601892B09F108958091E8008460E0
:1010C0008093E8008091E80082FDFCCF8091EE00E3
:1010D00081FDF3CF8091EE0080FDEFCF0E94F007FD
:1010E0000E94DC071092470180910701909108014E
:1010F0009093060180930501089581E08093E900B3
:101100008091E80080FDEACFE1CF089590914801F9
:1011100091112AC090E2980F983038F5982F977067
:1011200021E030E001C0220F9A95EAF790913E014C
:10113000662369F0292B20933E0130E020E0F9017D
:10114000E15CFE4F9081911113C08083089520953A
:10115000292320933E0130E020E0F901E15CFE4FBD
:10116000908198130BC0108208956111E6CFF3CFE0
:101170002F5F3F4F2630310511F708952F5F3F4F06
:101180002630310551F7089581E080934701089595
:1011900080914601089580914501882321F01092A5
:1011A000450181E0089580E008950F931F93CF9348
:1011B000DF938C0190934A0180934901D0E0C0E015
:1011C000C8018C0F9D1F0E94F710811106C0CE012F
:1011D000DF91CF911F910F9108952196C536D105CA
:1011E00079F78FEF9FEFF4CF8091490190914A01F9
:1011F00008952091490130914A01820F932F911D4A
:101200000C94FF102091490130914A01820F932FD5
:10121000911D0C94F710DF92EF92FF920F931F93A2
:10122000CF93DF93E82EF62E10E000E0D0E080911F
:10123000490190914A01800F911F0E94F710F9997E
:10124000FECF882309F46AC097EE980FE82FF0E0EC
:10125000EA5BFD4F803218F4953008F04AC0E49103
:10126000DE2E953008F443C0E894D7F8E7FF3FC07E
:1012700061E081EE0E9486080E94C40885E090E04B
:101280000E941706C1E0EE2051F061E08D2D0E9412
:1012900086080E94C40885E090E00E941706FF209F
:1012A00051F060E08D2D0E9486080E94C40885E000
:1012B00090E00E941706CC2351F060E081EE0E947E
:1012C00086080E94C40885E090E00E941706DD238E
:1012D00011F1FF2001F160E08D2F0E9486080E942D
:1012E000C40885E090E00E941706D0E014C0C0E07A
:1012F000CACFC4918A3028F4853028F5DD24D394F0
:1013000024C096EF980F9330C8F38D3009F588EE1E
:1013100093E00E9417060F5F1F4F89CFDD2391F1E5
:10132000FF2081F160E08D2F0E9486080E94C40892
:1013300085E090E0DF91CF911F910F91FF90EF90AA
:10134000DF900C941706DC2FD12CEE2071F003C037
:10135000EE2009F3D12C61E08C2F0E9486080E94B8
:10136000C40885E090E00E941706DD20A1F2FF206E
:1013700091F260E08C2F0E9486080E94C40885E0EC
:1013800090E0C7CFDF91CF911F910F91FF90EF9029
:10139000DF90089584E387B918B88EEF84B915B843
:1013A0001092800081E08093810080918400909170
:1013B000850088519C4F909389008093880080918C
:1013C0006F00826080936F00459888E190E0429AB8
:1013D00042980197E1F708950F920FB60F921F926E
:1013E00011242F933F934F935F936F937F938F932A
:1013F0009F93EF93FF9380918400909185002091BB
:101400004C01E22FF0E0EE0FFF1FE15FFE4F408145
:101410005181840F951F909389008093880021113A
:1014200003C085B1817085B9449A449880914C017C
:1014300081110BC085B190914B0122E030E001C0D9
:10144000220F9A95EAF7822B85B980914C018F5F24
:1014500080934C01873048F080914B0110924C01F1
:101460008F5F8730C8F580934B0180914C0127E056
:10147000281B322F3295307F80914F0160914B01B4
:1014800070E090E00E94FC0FE0914D01F0914E0160
:10149000E80FF91FAF01445F5F4F8191982F9F7054
:1014A0009217E8F0459A429A42988317D0F0459AED
:1014B000429A42984E175F0781F7FF91EF919F91F3
:1014C0008F917F916F915F914F913F912F911F90DD
:1014D0000F900FBE0F90189510924B01C6CF4598F4
:1014E000E2CF4598E5CFEDE4F1E09183808362831C
:1014F00008950E94CA096CE08091090190910A0147
:101500000C94730A6CE08091090190910A010E9489
:10151000730A809150018F5F80935001817090E039
:1015200064E570E00E94FC0F8F5A9E4F90930A0171
:101530008093090190E080E0E0910901F0910A01B7
:10154000E80FF91F1082019684359105A9F70895D7
:10155000A82F862F90E06CE070E00E94FC0FEA2F2D
:10156000E6958E0F911DE0910901F0910A01E80FB7
:10157000F91F2A2F217030E0220F331F220F331F53
:1015800001C0440F2A95EAF78081482B40830895D3
:10159000482FE82FE695862F90E06CE070E00E94DF
:1015A000FC0F6091090170910A01680F791FE60F25
:1015B000F72FF11D808190E0242F217030E0220F61
:1015C000331F220F331F02C0959587952A95E2F7A6
:1015D0008F700895CF92DF92EF92FF920F931F9337
:1015E000CF93DF93D62F042FC72FE72E770FFF0857
:1015F000E90EF11CC62E660FDD08C80ED11CCE15F3
:101600001F044CF0DF91CF911F910F91FF90EF904D
:10161000DF90CF9008951D2F1C151D0414F0CF5F8F
:10162000EECF402F6C2F812F0E94A80A1F5FF4CFAE
:101630002F923F924F925F926F927F928F929F92E2
:10164000AF92BF92CF92DF92EF92FF920F931F93D0
:10165000CF93DF9300D000D000D0CDB7DEB7B62F48
:10166000B72EA82F192FFA01098337012601AC8262
:101670008B828417150609F00CF43EC0C6016AEF90
:101680007FEF0E94FC0F8E179F07B4F50B2F1E16DD
:101690001F060CF04AC00E0F4A2F4E1B212C1217AA
:1016A000130651F14CF12A3F8FEF38072CF1EB2C48
:1016B000121613060CF053C0E20E121B212F1A82D1
:1016C000002E000C110BB12CA12CF801E40FF11D20
:1016D00047FDFA95FE83ED830E2C000CFF084701B1
:1016E000820E911C27FD9A94A414B5042CF48D81CC
:1016F0009E8108171907C4F126960FB6F894DEBF2D
:101700000FBECDBFDF91CF911F910F91FF90EF9052
:10171000DF90CF90BF90AF909F908F907F906F9011
:101720005F904F903F902F9008954A2FCF016AEF1E
:101730007FEF0E940D10660E771E86E0E82EF12CDA
:10174000CF01B7010E940D10460E571E882799271A
:101750008E1B9F0BB7010E940D10282EA0CF922F39
:1017600091959A83210FACCFF5E02F1609F44EC066
:101770008981813019F1823021F1811126C0F30174
:10178000808190E065E070E00E94FC0FFC01E20DBA
:10179000F11D27FCFA95EA53FD4FE491F0E00A8031
:1017A00002C0F595E7950A94E2F73E2E6701C8144A
:1017B000D9046CF023940F5F1F4F96CFF3018491EF
:1017C000E0CFC3010E94F710DCCF80E0DACF4B817D
:1017D00030FC4C816C2D802F0E94A80AFFEFCF1A9D
:1017E000DF0A3694E4CF4B816C2D802F0E94A80A2B
:1017F0008FEFC81AD80AC814D904ACF39FEF691A3E
:10180000790AEFEFAE1ABE0A212CD5CF6701F3CFCC
:101810003F924F925F926F927F928F929F92AF9280
:10182000BF92CF92DF92EF92FF920F931F93CF93CD
:10183000DF93F62E6A01172FE71AC72F770FDD0BFC
:10184000C90FD11DA22EB12C061B862E660F99083A
:10185000880E911C8E2D810F1C171D0694F0DF91B0
:10186000CF911F910F91FF90EF90DF90CF90BF909D
:10187000AF909F908F907F906F905F904F903F9030
:10188000089590E0B5010E94FC0F2C013F2C802FA1
:10189000830D3814190414F01F5FDCCFE82FE69590
:1018A000E40DF52DF11DEC0DFD1D449150E080FB84
:1018B000662460F8712CC301880F991F880F991F47
:1018C00002C0559547958A95E2F74F70612F832D99
:1018D0000E94A80A3394DBCF2F923F924F925F92DF
:1018E0006F927F928F929F92AF92BF92CF92DF9230
:1018F000EF92FF920F931F93CF93DF9300D000D00E
:1019000000D0CDB7DEB7762E49832A834801672EF3
:10191000212C30E020E0472E072E000C5508490E00
:10192000511CA71AAB82F12C062F062E000C110BAE
:10193000080F111DC61ACC8280E8A82EB12C6414A1
:101940001504CCF026960FB6F894DEBF0FBECDBFBF
:10195000DF91CF911F910F91FF90EF90DF90CF908B
:10196000BF90AF909F908F907F906F905F904F90BF
:101970003F902F9008958B81860D90E0B7010E94D3
:10198000FC0F6C01372C3016110614F06394D7CF7E
:101990008C81830D482F469546954695E42FEC0D96
:1019A000FD2DF11DE80DF91DFE83ED832E173F0778
:1019B00009F024908770950102C0359527958A9586
:1019C000E2F7C90130E0822193234A81892B09F093
:1019D0004981662D832D0E94A80A33942D813E8172
:1019E000D2CFCDB7DEB763970FB6F894DEBF0FBE88
:1019F000CDBF80E830E020E00FB6F894809361001E
:101A0000209361000FBE78940E9477030E946B06BA
:101A10000E94790A88EC90E00E941706F12C209130
:101A20000B0130910C0140910D0150910E012B875B
:101A30003C874D875E878EE190E00E941706AF2CB1
:101A4000C12C13E0E12E0CEB10E020E044E06B85AC
:101A50007C858D859E850E946C0C0E94820AF39481
:101A600038E2F312E8CF86E990E00E9417061B8A5D
:101A7000912C1B821C821D821E821F821886198651
:101A80001A86188A1F86612C198A1A8A77247394F9
:101A900041E0641294C061E6872D0E94F908552444
:101AA0005394570C60E0852D0E94F9080E940606A9
:101AB000C901AB81BC818A1B9B0B863991050CF057
:101AC000DBC067EE7FEF0E940D102B015989552373
:101AD00009F4D7C0A12CC12C03E0E02E04E710E0EC
:101AE00020E044E06B857C858D859E850E946C0C92
:101AF0000E94820A3A89332309F41AC280E00E94C4
:101B00009107882309F48EC1911025C0611023C06C
:101B10008FEF870D0E940209982E41E0471508F0CB
:101B20007CC18EEF870D0E9402098550853008F038
:101B300074C1892D0E94F902982E8BEF890D853092
:101B4000C0F30E9406062B833C834D835E836F8324
:101B5000788789879A8784E00E94C30781112AC009
:101B60002B89222309F4DCC184E00E94AA07182FE4
:101B7000882309F4D5C10FEF070D802F0E940209B9
:101B800090E00E94ED10892B09F0B9C1802F0E94CE
:101B9000020990E00E94E910892B09F0BEC1802F54
:101BA0000E94020921E6922E803208F4AAC19924EB
:101BB0009394A7C11A8A6CCF1B8A898B69CFBFEF18
:101BC0006B122BC00E940606AB80BC80CD80DE80ED
:101BD000EF80F88409851A850E94C310A6E0AA2E1A
:101BE000B12CC12CD12CE12CF12C00E010E00E9492
:101BF0002110B6E9AB2E0E945110422E532E26E042
:101C0000421651040CF462CF7A9460E0872D0E9452
:101C1000F908512C412C612C59CF992079F10E945F
:101C20000606AB80BC80CD80DE80EF80F88409851D
:101C30001A850E94C310E5E0AE2EB12CC12CD12C28
:101C4000E12CF12C00E010E00E942110F2E8AF2E10
:101C50000E9451102F87388B4F8558894530510588
:101C60006CF0692D8FEF870D0E94F908512C412CE3
:101C7000912C188A1F862ACF752CCBCF512C412C42
:101C800025CF8A89811133C00E940606B8E5AB2EA4
:101C90001BE1B12EC12CD12CE12CF12C00E010E085
:101CA0000E944F10C901283BABE03A0744F4A12C35
:101CB000A3E0EA2E09E810E020E042E013CF2C3A3E
:101CC0003D404CF4885B9B4062E370E00E940D1045
:101CD000A62EC12CEDCFFAE0AF2E843629E1920773
:101CE000C4F348E55BE1481B590BCA01EDCF0E94E4
:101CF0000606ECE2AE2EBB24B394C12CD12CE12C11
:101D0000F12C00E010E00E944F10C9012C3D31057C
:101D10000CF04AC02436310514F083E690E064E10B
:101D200070E00E940D10162F272C312CB4E0B7154F
:101D300040F4C10104976AEF7FEF0E94FC0F480E48
:101D4000591E21E0221A31080E94F4087C01812CDE
:101D500074E0A72E610102E030E020E0A2016B8573
:101D60007C858D859E850E94180B911029C00E944C
:101D7000F408472D4150550B7C01E40EF51EC101BE
:101D800066E070E00E94FC0FAC01440D551DA12ED1
:101D9000CC24C394D12C30E020E06B857C858D85EC
:101DA0009E850E94180BA4CEACE2B1E0A21BB30B3F
:101DB000CD01D29714F081E390E06AE070E0B1CFFA
:101DC0000E94F4087C01C10166E070E00E94FC0FF3
:101DD000480E591E34E0A32E5F85A51AA72DA150E9
:101DE000BB0BEA0EFB1E812CCC24C394D12C02E049
:101DF00030E020E0A2016B857C858D859E850E9468
:101E0000180B99821A82AF849E012F5F3F4F790190
:101E100000E030E020E0A201C0CF892D0E94F9024D
:101E2000982E8FCE82E00E949107882301F19110B5
:101E300092CE611090CE8FEF870D0E940209982EEE
:101E400051E0571580F48EEF870D0E9402098550EE
:101E5000853048F4892D0E94CF02982E8BEF890D92
:101E60008530C0F36ECE892D0E94CF02D9CF81E09C
:101E70000E9491078823F9F091106DCE61106BCE0E
:101E800081E0871540F494E0971538F07A9460E08B
:101E9000872D0E94F908962C5ECE0E9406062B83A1
:101EA0003C834D835E836F83788789879A87962CDE
:101EB00066246A9450CE83E00E949107882309F437
:101EC0004ACE911048CE611046CEA3E6A71518F36E
:101ED000B3E0B71530F061E6872D0E94F9087394DE
:101EE000D6CF0E9406062B833C834D835E836F838F
:101EF000788789879A87962C662463942CCE91E400
:101F0000992E0E9406062B833C834D835E836F834C
:101F1000788789879A871B8BBBCD80E3982EF1CF7A
:101F200084E00E94AA07882309F4B2CD8B8BB0CD40
:101F30003989332309F1F12C10E000E0802F0E9451
:101F40009107882391F044E0F12C041769F0FF24F5
:101F5000F394F00EC80165E670E00E94FC0F80501B
:101F600090400E94D508782E198A0F5F1F4F0530C8
:101F7000110521F7FA8A8CCD84E00E94C3078111F4
:101F80001BCE10E000E0802F0E949107882391F083
:101F9000043081F0C80165E670E00E94FC0F8050BB
:101FA00090400E94D50860E0019709F061E081E06F
:101FB0000E940B090F5F1F4F0530110521F710E03C
:101FC00000E0802F0E94AA07882379F0C80165E607
:101FD00070E00E94FC0F805090400E94D50801974D
:101FE00021F461E080E00E940B090F5F1F4F053074
:101FF000110539F7198A4CCD0024552704C0080E65
:10200000591F880F991F009729F076956795B8F3A7
:102010007105B9F7802D952F089597FB072E16F4BB
:10202000009407D077FD09D00E94D51007FC05D099
:102030003EF4909581959F4F0895709561957F4FDF
:102040000895DF93CF939F92A0E49A2E0024D001AD
:10205000E001F00116950795F794E794D794C7949B
:10206000B794A79448F41068A20FB31FC41FD51FDC
:10207000E61FF71F081E191E220F331F441F551F8E
:10208000661F771F881F991F9A9421F79D01AE0143
:10209000BF01C00111249F90CF91DF9108956894F2
:1020A00001C0E8948F929F92CF93DF930E945D10BE
:1020B000DF91CF919F908F90089588249924F40107
:1020C000E401B0E49F93AA279A158B049C04ED05C4
:1020D000FE05CF05D007A10798F4AD2FDC2FCF2F39
:1020E000FE2FE92D982C892E982F872F762F652F7C
:1020F000542F432F322F2227B85031F7BF9127C0DA
:102100001B2EBF91BB27220F331F441F551F661F75
:10211000771F881F991F881C991CEE1FFF1FCC1F5B
:10212000DD1FAA1FBB1F8A149B04EC05FD05CE050D
:10213000DF05A007B10748F08A189B08EC09FD09E4
:10214000CE09DF09A00BB10B21601A94E1F62EF441
:102150009401AF01BE01CD01000C08952A0D3B1D75
:102160004C1D5D1D6E1D7F1D801F911F0895002455
:10217000A7FD00942A0F301D401D501D601D701DCD
:10218000801D901D08952A193B094C095D096E09AF
:102190007F09800B910B08952A153B054C055D05C1
:1021A0006E057F05800791070895AA1BBB1B51E1AF
:1021B00007C0AA1FBB1FA617B70710F0A61BB70BB7
:1021C000881F991F5A95A9F780959095BC01CD015C
:1021D000089585FD0C94F410806291110C94F41014
:1021E00081568A51D8F70895992788270895F99933
:1021F000FECF92BD81BDF89A992780B50895262F0C
:10220000F999FECF1FBA92BD81BD20BD0FB6F894DB
:0E221000FA9AF99A0FBE01960895F894FFCF3E
:10221E0048082303FFF401F401510100001807914F
:0E222E00284714D60D480D0807DC055802009D
:00000001FF
